{
  "contractName": "Trade",
  "abi": [
    {
      "constant": true,
      "inputs": [
        {
          "name": "",
          "type": "bytes32"
        }
      ],
      "name": "start",
      "outputs": [
        {
          "name": "",
          "type": "uint256"
        }
      ],
      "payable": false,
      "stateMutability": "view",
      "type": "function"
    },
    {
      "constant": true,
      "inputs": [
        {
          "name": "",
          "type": "bytes32"
        }
      ],
      "name": "done",
      "outputs": [
        {
          "name": "",
          "type": "bool"
        }
      ],
      "payable": false,
      "stateMutability": "view",
      "type": "function"
    },
    {
      "constant": true,
      "inputs": [
        {
          "name": "",
          "type": "bytes32"
        }
      ],
      "name": "balance",
      "outputs": [
        {
          "name": "",
          "type": "uint256"
        }
      ],
      "payable": false,
      "stateMutability": "view",
      "type": "function"
    },
    {
      "constant": true,
      "inputs": [],
      "name": "owner",
      "outputs": [
        {
          "name": "",
          "type": "address"
        }
      ],
      "payable": false,
      "stateMutability": "view",
      "type": "function"
    },
    {
      "constant": true,
      "inputs": [
        {
          "name": "",
          "type": "bytes32"
        }
      ],
      "name": "seller",
      "outputs": [
        {
          "name": "",
          "type": "address"
        }
      ],
      "payable": false,
      "stateMutability": "view",
      "type": "function"
    },
    {
      "constant": true,
      "inputs": [
        {
          "name": "",
          "type": "bytes32"
        }
      ],
      "name": "buyer",
      "outputs": [
        {
          "name": "",
          "type": "address"
        }
      ],
      "payable": false,
      "stateMutability": "view",
      "type": "function"
    },
    {
      "inputs": [],
      "payable": false,
      "stateMutability": "nonpayable",
      "type": "constructor"
    },
    {
      "constant": false,
      "inputs": [
        {
          "name": "id",
          "type": "bytes32"
        },
        {
          "name": "_buyer",
          "type": "address"
        },
        {
          "name": "_seller",
          "type": "address"
        }
      ],
      "name": "createNewTrade",
      "outputs": [],
      "payable": true,
      "stateMutability": "payable",
      "type": "function"
    },
    {
      "constant": false,
      "inputs": [
        {
          "name": "id",
          "type": "bytes32"
        }
      ],
      "name": "accept",
      "outputs": [],
      "payable": false,
      "stateMutability": "nonpayable",
      "type": "function"
    },
    {
      "constant": false,
      "inputs": [
        {
          "name": "id",
          "type": "bytes32"
        }
      ],
      "name": "cancel",
      "outputs": [],
      "payable": false,
      "stateMutability": "nonpayable",
      "type": "function"
    },
    {
      "constant": false,
      "inputs": [
        {
          "name": "id",
          "type": "bytes32"
        }
      ],
      "name": "killTxn",
      "outputs": [],
      "payable": false,
      "stateMutability": "nonpayable",
      "type": "function"
    },
    {
      "constant": true,
      "inputs": [
        {
          "name": "id",
          "type": "bytes32"
        }
      ],
      "name": "getTxn",
      "outputs": [
        {
          "name": "",
          "type": "address"
        },
        {
          "name": "",
          "type": "address"
        },
        {
          "name": "",
          "type": "uint256"
        }
      ],
      "payable": false,
      "stateMutability": "view",
      "type": "function"
    }
  ],
  "bytecode": "0x6060604052341561000f57600080fd5b336000806101000a81548173ffffffffffffffffffffffffffffffffffffffff021916908373ffffffffffffffffffffffffffffffffffffffff16021790555061102b8061005e6000396000f3006060604052600436106100af576000357c0100000000000000000000000000000000000000000000000000000000900463ffffffff168063015a18ed146100b45780631041eb96146100ef578063388a3cf51461019057806375abf5c8146101cf57806389eba421146101f65780638da5cb5b14610231578063ad0c37f514610286578063c4d252f5146102ed578063caaf4a5314610314578063e4725ba11461036e578063fa516e1914610395575b600080fd5b34156100bf57600080fd5b6100d96004808035600019169060200190919050506103fc565b6040518082815260200191505060405180910390f35b34156100fa57600080fd5b610114600480803560001916906020019091905050610414565b604051808473ffffffffffffffffffffffffffffffffffffffff1673ffffffffffffffffffffffffffffffffffffffff1681526020018373ffffffffffffffffffffffffffffffffffffffff1673ffffffffffffffffffffffffffffffffffffffff168152602001828152602001935050505060405180910390f35b341561019b57600080fd5b6101b56004808035600019169060200190919050506104ba565b604051808215151515815260200191505060405180910390f35b34156101da57600080fd5b6101f46004808035600019169060200190919050506104da565b005b341561020157600080fd5b61021b600480803560001916906020019091905050610653565b6040518082815260200191505060405180910390f35b341561023c57600080fd5b61024461066b565b604051808273ffffffffffffffffffffffffffffffffffffffff1673ffffffffffffffffffffffffffffffffffffffff16815260200191505060405180910390f35b341561029157600080fd5b6102ab600480803560001916906020019091905050610690565b604051808273ffffffffffffffffffffffffffffffffffffffff1673ffffffffffffffffffffffffffffffffffffffff16815260200191505060405180910390f35b34156102f857600080fd5b6103126004808035600019169060200190919050506106c3565b005b61036c60048080356000191690602001909190803573ffffffffffffffffffffffffffffffffffffffff1690602001909190803573ffffffffffffffffffffffffffffffffffffffff16906020019091905050610995565b005b341561037957600080fd5b610393600480803560001916906020019091905050610a8e565b005b34156103a057600080fd5b6103ba600480803560001916906020019091905050610df8565b604051808273ffffffffffffffffffffffffffffffffffffffff1673ffffffffffffffffffffffffffffffffffffffff16815260200191505060405180910390f35b60076020528060005260406000206000915090505481565b600080600060026000856000191660001916815260200190815260200160002060009054906101000a900473ffffffffffffffffffffffffffffffffffffffff1660036000866000191660001916815260200190815260200160002060009054906101000a900473ffffffffffffffffffffffffffffffffffffffff16600160008760001916600019168152602001908152602001600020549250925092509193909250565b60066020528060005260406000206000915054906101000a900460ff1681565b6000809054906101000a900473ffffffffffffffffffffffffffffffffffffffff1673ffffffffffffffffffffffffffffffffffffffff163373ffffffffffffffffffffffffffffffffffffffff1614156106505760066000826000191660001916815260200190815260200160002060009054906101000a900460ff1615151561056457600080fd5b60026000826000191660001916815260200190815260200160002060009054906101000a900473ffffffffffffffffffffffffffffffffffffffff1673ffffffffffffffffffffffffffffffffffffffff166108fc600160008460001916600019168152602001908152602001600020549081150290604051600060405180830381858888f1935050505015156105fa57600080fd5b600060016000836000191660001916815260200190815260200160002081905550600160066000836000191660001916815260200190815260200160002060006101000a81548160ff0219169083151502179055505b50565b60016020528060005260406000206000915090505481565b6000809054906101000a900473ffffffffffffffffffffffffffffffffffffffff1681565b60036020528060005260406000206000915054906101000a900473ffffffffffffffffffffffffffffffffffffffff1681565b60066000826000191660001916815260200190815260200160002060009054906101000a900460ff161515156106f857600080fd5b60026000826000191660001916815260200190815260200160002060009054906101000a900473ffffffffffffffffffffffffffffffffffffffff1673ffffffffffffffffffffffffffffffffffffffff163373ffffffffffffffffffffffffffffffffffffffff1614156107a057600060046000836000191660001916815260200190815260200160002060006101000a81548160ff021916908315150217905550610845565b60036000826000191660001916815260200190815260200160002060009054906101000a900473ffffffffffffffffffffffffffffffffffffffff1673ffffffffffffffffffffffffffffffffffffffff163373ffffffffffffffffffffffffffffffffffffffff16141561084457600060056000836000191660001916815260200190815260200160002060006101000a81548160ff0219169083151502179055505b5b60046000826000191660001916815260200190815260200160002060009054906101000a900460ff161580156108a1575060056000826000191660001916815260200190815260200160002060009054906101000a900460ff16155b156109925760026000826000191660001916815260200190815260200160002060009054906101000a900473ffffffffffffffffffffffffffffffffffffffff1673ffffffffffffffffffffffffffffffffffffffff166108fc600160008460001916600019168152602001908152602001600020549081150290604051600060405180830381858888f19350505050151561093c57600080fd5b600060016000836000191660001916815260200190815260200160002081905550600160066000836000191660001916815260200190815260200160002060006101000a81548160ff0219169083151502179055505b50565b34600160008560001916600019168152602001908152602001600020819055508160026000856000191660001916815260200190815260200160002060006101000a81548173ffffffffffffffffffffffffffffffffffffffff021916908373ffffffffffffffffffffffffffffffffffffffff1602179055508060036000856000191660001916815260200190815260200160002060006101000a81548173ffffffffffffffffffffffffffffffffffffffff021916908373ffffffffffffffffffffffffffffffffffffffff1602179055504260076000856000191660001916815260200190815260200160002081905550505050565b60066000826000191660001916815260200190815260200160002060009054906101000a900460ff16151515610ac357600080fd5b60026000826000191660001916815260200190815260200160002060009054906101000a900473ffffffffffffffffffffffffffffffffffffffff1673ffffffffffffffffffffffffffffffffffffffff163373ffffffffffffffffffffffffffffffffffffffff161415610b6b57600160046000836000191660001916815260200190815260200160002060006101000a81548160ff021916908315150217905550610c10565b60036000826000191660001916815260200190815260200160002060009054906101000a900473ffffffffffffffffffffffffffffffffffffffff1673ffffffffffffffffffffffffffffffffffffffff163373ffffffffffffffffffffffffffffffffffffffff161415610c0f57600160056000836000191660001916815260200190815260200160002060006101000a81548160ff0219169083151502179055505b5b60046000826000191660001916815260200190815260200160002060009054906101000a900460ff168015610c6a575060056000826000191660001916815260200190815260200160002060009054906101000a900460ff165b15610c7d57610c7881610e2b565b610df5565b60046000826000191660001916815260200190815260200160002060009054906101000a900460ff168015610cd8575060056000826000191660001916815260200190815260200160002060009054906101000a900460ff16155b8015610d03575062278d00600760008360001916600019168152602001908152602001600020540142115b15610df45760026000826000191660001916815260200190815260200160002060009054906101000a900473ffffffffffffffffffffffffffffffffffffffff1673ffffffffffffffffffffffffffffffffffffffff166108fc600160008460001916600019168152602001908152602001600020549081150290604051600060405180830381858888f193505050501515610d9e57600080fd5b600060016000836000191660001916815260200190815260200160002081905550600160066000836000191660001916815260200190815260200160002060006101000a81548160ff0219169083151502179055505b5b50565b60026020528060005260406000206000915054906101000a900473ffffffffffffffffffffffffffffffffffffffff1681565b60066000826000191660001916815260200190815260200160002060009054906101000a900460ff16151515610e6057600080fd5b6000809054906101000a900473ffffffffffffffffffffffffffffffffffffffff1673ffffffffffffffffffffffffffffffffffffffff166108fc600a60016000856000191660001916815260200190815260200160002054811515610ec257fe5b049081150290604051600060405180830381858888f193505050501515610ee857600080fd5b60036000826000191660001916815260200190815260200160002060009054906101000a900473ffffffffffffffffffffffffffffffffffffffff1673ffffffffffffffffffffffffffffffffffffffff166108fc600a60016000856000191660001916815260200190815260200160002054811515610f6457fe5b0460016000856000191660001916815260200190815260200160002054039081150290604051600060405180830381858888f193505050501515610fa757600080fd5b600060016000836000191660001916815260200190815260200160002081905550600160066000836000191660001916815260200190815260200160002060006101000a81548160ff021916908315150217905550505600a165627a7a723058206ff422fb1b7194899a7bf8cd9b633d23ddb4280331aab66b1ba9a7680fe888680029",
  "source": "pragma solidity ^0.4.18;\n\ncontract Trade {\n  address public owner;\n  mapping (bytes32 => uint) public balance;\n  mapping (bytes32 => address) public buyer;\n  mapping (bytes32 => address) public seller;\n  mapping (bytes32 => bool) private buyerOk;\n  mapping (bytes32 => bool) private sellerOk;\n  mapping (bytes32 => bool) public done;\n  mapping (bytes32 => uint) public start;\n\n  function Trade() public {\n    owner = msg.sender;\n  }\n\n  modifier restricted() {\n    if (msg.sender == owner) _;\n  }\n\n  function createNewTrade(bytes32 id, address _buyer, address _seller) public payable {\n    balance[id] = msg.value;\n    buyer[id] = _buyer;\n    seller[id] = _seller;\n    start[id] = now;\n  }\n\n  function accept(bytes32 id) public {\n    require (!done[id]);\n\n    if (msg.sender == buyer[id])\n      buyerOk[id] = true;\n    else if (msg.sender == seller[id])\n      sellerOk[id] = true;\n\n    if (buyerOk[id] && sellerOk[id])\n      payBalance(id);\n    else if (buyerOk[id] && !sellerOk[id] && now > start[id] + 30 days) {\n      buyer[id].transfer(balance[id]);\n      balance[id] = 0;\n      done[id] = true;\n    }\n  }\n\n  function payBalance(bytes32 id) private {\n    require (!done[id]);\n\n    owner.transfer(balance[id] / 10);\n    seller[id].transfer(balance[id] - balance[id] / 10);\n    balance[id] = 0;\n    done[id] = true;\n  }\n\n  function cancel(bytes32 id) public {\n    require (!done[id]);\n\n    if (msg.sender == buyer[id])\n      buyerOk[id] = false;\n    else if (msg.sender == seller[id])\n      sellerOk[id] = false;\n\n    if (!buyerOk[id] && !sellerOk[id]) {\n      buyer[id].transfer(balance[id]);\n      balance[id] = 0;\n      done[id] = true;\n    }\n  }\n\n  function killTxn(bytes32 id) public restricted {\n    require (!done[id]);\n    buyer[id].transfer(balance[id]);\n    balance[id] = 0;\n    done[id] = true;\n  }\n\n  function getTxn(bytes32 id) public view returns (address,address,uint){\n    return (buyer[id],seller[id],balance[id]);\n  }\n\n}\n\n  ",
  "sourcePath": "/home/aditya/stock-trading-backend/contracts/Trade.sol",
  "compiler": {
    "name": "solc",
    "version": "0.4.19+commit.c4cbbb05.Emscripten.clang"
  },
  "schemaVersion": "1.0.1",
  "updatedAt": "2018-04-17T09:20:12.672Z"
}